:020000040000FA
:20000000022611908008E054F8F022021E413002030224B7121EA0122164220220EB3333E2
:20002000CCCC00CCCC333300FFFFFFFFFF00000000000404040400000000005F00000000C0
:200040000700070000147F147F14242A7F2A1227156B547236495620500B070000001C224D
:2000600041000041221C0000221C7F1C2208083E0808B0700000000808080808606000005F
:200080000020100804023E5149453E427F400000724949494622414949361814127F102714
:2000A000454545393C4A49493001710905033649494936064949291E6C6C0000005B3B00D9
:2000C00000000814224100141414141441221408000201510906324979413E7C1211127CBB
:2000E0007F494949363E414141227F4141221C7F494941417F090901013E4149493A7F0816
:2001000008087F417F4100002040413F017F081422417F404040407F020C027F7F02040856
:200120007F3E4141413E7F090909063E4151215E7F09192946264949493201017F01013F0D
:200140004040403F07186018077F2018207F6314081463030478040361514945437F4141AC
:200160000000020408102041417F000004020102044040404040070B00000020545454784D
:200180007F284444383844444444384444287F3854545418087E09090298A4A4A47C7F08DC
:2001A000040478447D4000004080847D007F10284400417F4000007C047804787C08040402
:2001C000783844444438FC2424241818242424FC7C080404084854545424043F4440003C6C
:2001E0004040207C1C2040201C3C4030403C44281028449CA0A0A07C4464544C4408364118
:2002000000007F0000000041360800000000000000000000000000000000000000000000E0
:200220000000000000000000000000000000000000000000000000000000000000000000BE
:2002400000000000000000000000000000000000000000000000000000000000000000009E
:2002600000000000000000000000000000000000000000000000000000000000000000007E
:2002800000000000000000000000000000000000000000000000000000000000000000005E
:2002A00000000000000000000000000000000000000000000000000000000000000000003E
:2002C00000000000000000000000000000000000000000000000000000000000000000001E
:2002E0000000000000000000000000000000000000000000000000000000000000000000FE
:200300000000000000000205050200000000000000000000000000000000000000000000CF
:200320000000000000000000000000000000000000000000000000000000000000000000BD
:2003400000000000000000000000000000000000000000000000000000000000000000009D
:2003600000000000000000000000000000000000000000000000000000000000000000007D
:2003800000000000000000000000000000000000000000000000000000000000000000005D
:2003A00000000000000000000000000000000000000000000000000000000000000000003D
:2003C00000000000000000000000000000000000000000000000000000000000000000001D
:2003E000000000000000000000000000000000000000000000002054555678000000000066
:20040000205655567800000000002055545578000000000000000000003844C44444385558
:20042000565418385655541838565556183855545518497A40000000000000004A79420004
:20044000004A78420000000000000000000000003844454638000000000038464546380018
:20046000000000003845444538000000000000000000003C4142403C00000000003C424144
:20048000423C3C4140413C0000000000183C5A5A5A9CA1A0A17C0501030505050502030323
:2004A0000505020502050503050505050505050502020405040505050505050505050503AE
:2004C000050505050505050505050505050505050503050305050205050505050505050385
:2004E000040403050505050505050405050505050503010305050505050505050505050569
:2005000005050505050505050505050505050505050505050505050505050505050505053B
:2005200005050505050504050505050505050505050505050505050505050505050505051C
:200540000505050505050505050505050505050505050505050505050505050505050505FB
:2005600005050305030305050505050505050505050505050505E4900109F0A3F0F50CF51C
:200580000E90802EE0540FF50DE4F50F9000087D00E50F75F008A424BDF9748335F0FA7B5D
:2005A00001AE83AF82120B6F050FE50FB408DD78BC7C837D017B017A80792E7E007F0112CD
:2005C0000AA7E50DD3940050030207A6E50D940940030207A6E50DD3940050030207A9E54B
:2005E0000C60030207A9150D90010975F001120AF8FE742F25F0F58274803EF583E0FFE509
:200600000E75F008A424BDF582E43483F583EFF0900109E475F001120AF8FE742F25F0F5CE
:200620008274803EF583E0FFE50E75F008A424BEF582E43483F583EFF0E50E75F008A42438
:20064000BDF582E43483F583E0547FFF644C6012EF6452600DEF644D6008EF6448600375F2
:200660000C01900109E0FEA3E0FFE50E75F008A424BFF582E43483F583EEF0A3EFF0E4FFBF
:20068000FE900109E0FCA3E0FD242FF58274803CF583E0641B7003020717E50C7079908018
:2006A0000CE0147061742F2DF58274803CF583E0900476932FFFE43EFE0FBF00010ED3EF10
:2006C000946CEE94004015E50E75F008A424BDF582E43483F583E054804448F0900109E02A
:2006E000FCA3E0242FF58274803CF583E0C394205003750C0190010AE004F07084900109E0
:20070000E004F002068190010AE004F07006900109E004F0020681E50E75F008A424BDF5C6
:2007200082E43483F583E0547FFFBF4811E50E75F008A424BEF582E43483F583E4F0908006
:200740000CE06401702BE50E75F008A424BDF582E43483F583E0547F64486015E50E75F012
:2007600008A424BEF582E43483F583E07003750C0190010AE024FFFF900109E034FFFEE55F
:200780000E75F008A424C1F582E43483F583EEF0A3EFF090010AE004F07006900109E00408
:2007A000F0050E0205D5750C0190800CE0B4011D90010AE02401FF900109E03400FE9083AC
:2007C000B7E06E7003A3E06F6003750C01E50C24FF228F0C750F84751047E4F50DF50E90AC
:2007E00080297407F0C20D7E167F047D007B017A847943120B6FE50C75F008A424FEF58225
:20080000E43483F583E0547F24B8700302092624FB606724FB6035240660030209D6E50C99
:2008200075F008A42400F582E43484F583E0FEA3E0FFE50C75F008A42402F582E43484F568
:2008400083E0FCA3E0FD75174C0209CFE50C75F008A42400F582E43484F583E0FEA3E0FFF6
:20086000E50C75F008A42402F582E43484F583E0FCA3E0FD7517520209CFE50C75F008A4AF
:200880002400F582E43484F583E0FEA3E0FFE50C75F008A42402F582E43484F583E0FCA317
:2008A000E02401FDE43CFCC3EF9DEE9C5033744C2FF58274B03EF583E0FDE4FCED900476CA
:2008C00093FBECC39B500B050EE50E7002050D0C80EA050EE50E7002050D0FBF00010E80FE
:2008E000ADC3746C950EFFE4950DC313FEEF132510F510EE350FF50FE50C75F008A4240014
:20090000F582E43484F583E0FEA3E0FFE50C75F008A42402F582E43484F583E0FCA3E0FDDD
:2009200075174D0209CF90B3E6E090010BF09001137401F0E4FDD20D90B3E4F0A3F0746C1C
:200940002510F510E4350FF50F90B3E6E0FF3395E0FEEF7803C333CE33CED8F92406F582E2
:2009600074843EF583E0547FFFBF48247D0190B3E6E004F0900113E004F090B3E6E0FF9061
:200980000113E0240BF582E43401F583EFF080B9ED6011900113E0FF90010BE0FDAB10AA55
:2009A0000F021633E50C75F008A42400F582E43484F583E0FEA3E0FFE50C75F008A42402A4
:2009C000F582E43484F583E0FCA3E0FD751748AB10AA0F12136022E709F608DFFA8046E7CD
:2009E00009F208DFFA803E88828C83E709F0A3DFFA8032E309F608DFFA8078E309F208DFB6
:200A0000FA807088828C83E309F0A3DFFA806489828A83E0A3F608DFFA805889828A83E055
:200A2000A3F208DFFA804C80D280FA80C680D4806980F28033801080A680EA809A80A8801E
:200A4000DA80E280CA803389828A83ECFAE493A3C8C582C8CCC583CCF0A3C8C582C8CCC593
:200A600083CCDFE9DEE7800D89828A83E493A3F608DFF9ECFAA9F0EDFB2289828A83ECFA7E
:200A8000E0A3C8C582C8CCC583CCF0A3C8C582C8CCC583CCDFEADEE880DB89828A83E49359
:200AA000A3F208DFF980CC88F0EF60010E4E60C388F0ED2402B4040050B9F582EB2402B4A6
:200AC000040050AF2323458223900A2773BB010689828A83E0225002E722BBFE02E322892F
:200AE000828A83E49322BB010689828A83F0225002F722BBFE01F322A3F8E0C5F025F0F073
:200B0000E582158270021583E0C838F0E822EB9FF5F0EA9E42F0E99D42F0EC6480C8648096
:200B20009845F022EB9FF5F0EA9E42F0E99D42F0E89C45F022D083D082E493701274019364
:200B4000700DA3A393F8740193F5828883E4737402936C70127403936D700C7404936E7093
:200B6000067405936F60DDA3A3A3A3A3A380CAEF4E6012EF60010EEDBB010B89828A83F0D2
:200B8000A3DFFCDEFA2289F05007F709DFFCA9F022BBFEFCF309DFFCA9F02290800CE064D0
:200BA000016003020D3B300303020D3B1225AFF50F8F101225AF8F11200F03020CBEAF113A
:200BC000EFC413135403146045146056147003020C7024036003020D4C121D7D90802EE5A9
:200BE00011F0E4F50D1225AF742F250DF582E43480F583EFF0050DE50DC394E240E7908079
:200C000008E04410F0E054DF121CB7020D1AE4F50D1225AF8F0E050DE50DC394E240F202AD
:200C20000D38E4F50D1225AF90B3E7E075F0E2A4250DF582E435F0F583E582242FF582E56E
:200C4000833480F583EFF0050DE50DC394E240D59083B8E024E2F09083B7E03400F090B302
:200C6000E7E004F0E0D394035003020D4C020D38E4F50D1225AF90B3E7E075F0E2A4250D87
:200C8000F582E435F0F583E582242FF582E5833480F583EFF0050DE50DC394E240D5E51071
:200CA00024FFFFE50F34FFFE9083B8E02FF09083B7E03EF0C20FE490B3E7F0D21022908068
:200CC0002EE511F0E0FFC413135403603124FE605614605324027074E4F50D1225AF742F37
:200CE000250DF582E43480F583EFF0050DE50DC394E240E790B3E7E004F0D20F801EE4F5A2
:200D00000D1225AF742F250DF582E43480F583EFF0050DE50DC394E240E7D2109083B7E5B0
:200D20000FF0A3E510F022E4F50D1225AF8F0E050DE50DC394E240F202249EE4F50D122551
:200D4000AF8F0E050DE50DC394E440F2228E368F378B388A39893A753E00753F01E53B2435
:200D6000FE605B147003020E27147003020E7F147003020EAF24046003020EEAE53D245580
:200D8000F582E53C3405F58374AAF0253DF582E53C3402F5837455F0253DF582E53C340568
:200DA000F58374A0F0AB38AA39A93A120ACDFFE53D2537F582E53C3536F583EFF022E53D0A
:200DC0002455F582E53C3455F58374AAF0253DF582E53C342AF5837455F0253DF582E53C70
:200DE0003455F58374A0F0E4FDAB38AA39A93A120ACDFCEDFB7A00E537AE367807C333CEDA
:200E000033CED8F92BFFEE3AFEE53D2FF582E53C3EF583ECF07401253AF53AE43539F539B2
:200E20000DBD80C5020EA8E53D2455F582E53C3455F58374AAF0253DF582E53C342AF583D9
:200E40007455F0253DF582E53C3455F5837480F0E53D2455F582E53C3455F58374AAF02593
:200E60003DF582E53C342AF5837455F0253DF582E53C3455F5837410F07FA07E0F802DE561
:200E80003D2455F582E53C3455F58374AAF0253DF582E53C342AF5837455F0253DF582E5AE
:200EA0003C3455F58374F0F07FD07E07022514E53D2455F582E53C3455F58374AAF0253DEE
:200EC000F582E53C342AF5837455F0253DF582E53C3455F5837490F07FD07E071225148558
:200EE0003F82853E83E0900088F022E4F517F518F514751604F515F51AF51F7510607511B4
:200F00000D750E60750F0E75126075130F121A38D2B4E515C3946C40030210661225FD7FBC
:200F2000647E001224E7851382851283E05401F519E51414601D0470D9121A388511828563
:200F400010837401F0850F82850E8374F7F075140180BF121A38E51970080518E5187002E3
:200F60000517051AE51AB40807E4F51A05160515E51664086003021036F516051F851182F3
:200F8000851083F0E51FB40E00400302102D900F95F8282873020FBF020FC7020FCF020F79
:200FA000D7020FDF020FE7020FEF020FF7020FFF02100702100F02101702101F0210277518
:200FC000106075110D806675106075110C805E75106075110B805675106075110A804E75CF
:200FE00010607511098046751060751108803E7510607511178036751060751116802E751F
:2010000010607511158026751060751114801E7510607511138016751060751112800E756E
:2010200010607511118006751060751110850F82850E8374FFF0AF1A7401A807088002C3DF
:2010400033D8FC851182851083F0C374079516FF7401A807088002C333D8FCF4850F82857A
:201060000E83F0020F12121A38C2B4D3E51894FFE517940040067517007518FFAF18228F29
:201080000D1225D690844074FBF0A37435F07E037F8B7D007B017A80792E120B6F7E037F96
:2010A0008B7D007B017AB0794B120B6F7E167F047D007B017A847943120B6F7E167F047D48
:2010C000007B017A9A7947120B6F7E007F037D007B017A8379B9120B6F7E007F047D007B87
:2010E000017A80790D120B6F7E007F417D007B017A8379BC120B6F7E007F417D007B017A3D
:201100008379FD120B6FE490B3E4F0A3F0908006F0A3F0908003F0A3F0908028F090801144
:2011200004F0E490800CF090B3DEF0A3F090B3E0F0A3F090B3E6F0908029F0908005F090AA
:201140008442F0F524F53590B3E2F090B3E7F0F534F533F532F531C20BC204C201C204C2EB
:201160000DC208C209D20CC210C202C20EC206C20FC2B4F52BF526F52878CF760112261715
:20118000E50D606B7F037E0012222EAD07EDD3947F9080134005743CF08002EDF09080131F
:2011A000E090B3E3F0E4908002F07F02FE12222EAD07EDC394014006EDD3947F40139080FD
:2011C00000E4F0A3742DF090843EE4F0A3741BF022ED75F005A4FF908000E5F0F0A3EFF04C
:2011E000ED75F003A4FF90843EE5F0F0A3EFF022E4FF0F242EF582E43480F5837424F00FDA
:20120000742E2401F582E43480F583744CF00F742E2402F582E43480F5837401F0E4FEAD7E
:20122000070F742E2DF582E43480F5837402F00EBE07ECAE070F742E2EF582E43480F58302
:20124000741BF0AE070F742E2EF582E43480F583744CF0AE070F742E2EF582E43480F58329
:201260007401F0E4FEAD070F742E2DF582E43480F5837403F00EBE06ECE4FEAD070F742EA2
:201280002DF582E43480F5837402F00EBE08ECAE070F742E2EF582E43480F583741BF0AE2C
:2012A000070F742E2EF582E43480F583744CF0AE070F742E2EF582E43480F5837401F0E4AD
:2012C000FEAD070F742E2DF582E43480F5837403F00EBE0DECE4FEAD070F742E2DF582E4FC
:2012E0003480F5837402F00EBE08ECAE070F742E2EF582E43480F583741BF0AE070F742E9C
:201300002EF582E43480F583744CF0AE070F742E2EF582E43480F5837401F0E4FEAD070F43
:20132000742E2DF582E43480F5837403F00EBE14ECE4FEAD070F742E2DF582E43480F58329
:201340007402F00EBE08EC742E2FF582E43480F583741BF0D210908008E054F84401F02213
:201360008E118F128C138D148A158B1690800CE024F8600E24F8700302145B240F6003028F
:2013800014C9851118851219E5142401FFE43513FEC3E5199FE5189E506E744C2519F5829D
:2013A00074B03518F583E0F51D75F005A42496F582E5F034FFAF82F51B8F1CE4F51AE51D2A
:2013C00090047693FFE51AC39F5023851C82851B83E493851682851583F00516E51670022E
:2013E0000515051CE51C7002051B051A80D0851682851583E4F00516E516700205150519E2
:20140000E519708405188080E5176452703B7E847FB4C3E5169FE5159E502ED3E516944412
:20142000E51594844023851682851583E08F828E83F0851682851583E4F0E5161516700265
:201440001515EF1F70D51E80D2C3E5169443FEE5159484908006F0A3CEF02285111885122C
:2014600019C3E5199514E5189513505D744C2519F58274B03518F583E0F51D75F005A42415
:201480001EF582E43400AF82F51B8F1CE4F51AE51D90003293FFE51AC39F5023851C8285EE
:2014A0001B83E493851682851583F00516E51670020515051CE51C7002051B051A80D00523
:2014C00019E519709C0518809822E4FE1225AF740D2EF582E43480F583EFF00EBE04ED9068
:2014E000800DE054071424FD5007603B146055807390800CE06440606B20036890800DE04E
:20150000540724FE600F146014240270169080117404F0800E9080117408F0800690801160
:201520007410F0D20C803D90800CE0FF6404600AEF64086005EF6410702A9080117401F08C
:20154000D20C802090800CE0B440199080117401F0D20C7E007F037D00FB7A807908120B90
:201560006FE4F52590800DE01313135403146011146003147017E4F534F533F532F53180D8
:201580000C7534117533AA7532117531AA90800DE0FFC413540730E02090800CE0640170FC
:2015A0001890800DE054DFF0908008E054EFF0E054DFF0121D7D121CB8908010E030E042E1
:2015C000E0C313547FD394004038E013547F75F005A4FF908000E5F0F0A3EFF0908010E079
:2015E000C313547F75F003A4FF90843EE5F0F0A3EFF0908010E0C313547FFD7F027E0012E7
:2016000020A490800EE030E029E05401D394004021E013547F90B3E3F0E0FD7F037E001207
:2016200020A490B3E3E0908013F0C203908008121CB4228D118A128B13A907E4F514F5156D
:20164000E97003021717E511FD7C002515FFEC3514FEEF7803C333CE33CED8F92400F58288
:2016600074843EF583E0F51AA3E0F51B0515E515AE1470020514142DFFEE3CFEEF7803C344
:2016800033CE33CED8F92402F58274843EF583E0F51CA3E0F51DAF1BAE1AE51D2401FDE40C
:2016A000351CFCC3EF9DEE9C5069744C2FF58274B03EF583E0F51975F005A42496F582E5F9
:2016C000F034FFAD82F5178D18E4F516E51990047693FDE516C39D5023851882851783E490
:2016E00093851382851283F00513E513700205120518E51870020517051680D085138285E8
:201700001283E4F00513E513700205120FBF00010E808719021640C3E5139443FEE5129457
:2017200084908006F0A3CEF022908029E004F0B40802E4F0908029E0FF90B3E5E02FFF901F
:20174000B3E4E03400FE200B0974432FF5827484800774472FF582749A3EAF82F5088F095D
:20176000300D0E908002E0700890800B7407F0800690800B7408F07F0D7E60E4FD850982C6
:20178000850883E08F828E83F0EF1F70011E90800BE02509F509E43508F5080DBD06DE7E39
:2017A000607F17E4FD850982850883E08F828E83F0EF1F70011E90800BE02509F509E43563
:2017C00008F5080DBD08DE7E607F0E908029E0FDC374079DFD7401A805088002C333D8FC85
:2017E000F48F828E83F0908440E0A3F58DE0F58BD28E22E4908003F0A3F09083FDE0540FDB
:20180000FE90B3E6E0FFC3EE6480F8EF6480985047C2011207D290B3E6E0FF3395E0FEEFE8
:201820007803C333CE33CED8F924FFF58274833EF583E0FFD39400401AD208E490B3E0F0DF
:20184000A3F0EF75F00AA4FF90B3DEE5F0F0A3EFF08002C208D20122300647C206D20E78AE
:201860004B7CB07D017B017A80792E7E037F8B120AA778FD7C837D017B017A8379BC7E00EA
:201880007F41120AA7D204908008E054DFF0E054EFF0E490B3E6F07E807F087B037D03023F
:2018A0001CC09083FDE0FFC4540F20E008D204E490B3E6F022121D7D2290800CE024FE60ED
:2018C0001324FE600F24FC600B24F86007240F600302197C1205765003021979300E579090
:2018E00083FDE0C4135401FF9083BCE0FEC4135401D39F4036C2061223D6784B7CB07D015C
:201900007B017A80792E7E037F8B120AA778FD7C837D017B017A8379BC7E007F41120AA7BB
:20192000D204908008E054DFF0803AD206908008E04420F08038C206D20E784B7CB07D010B
:201940007B017A80792E7E037F8B120AA778FD7C837D017B017A8379BC7E007F41120AA77B
:20196000D204908008E054EFF0E490B3E6F07E807F087B037D03021CC012249E227E007F15
:20198000037D007B017A807908120B6F1225FD122128EF540133333354F8FF908009E05440
:2019A000F74FF01225FD121D19EF540125E025E0FF908009E054FB4FF01225FD1223F6EF53
:2019C0005401C454F0FF908009E054EF4FF01225FD1224FEEF5401FF908009E054FE4FF0FB
:2019E0001225FD1225CA90800AEFF01225FD90800AE0D3942C908009E040054420F08003E3
:201A000054DFF01225FD908009E0131313541F20E020E01313543F20E018E0C4540F20E0F2
:201A200011E0C413540720E009E020E005750D018003E4F50DAF0D22E4F9E9B40E00400300
:201A4000021AC6901A4AF8282873021A74021A7A021A80021A86021A8C021A92021A980285
:201A60001A9E021AA4021AAA021AB0021AB6021ABC021AC27E607F10804C7E607F11804667
:201A80007E607F1280407E607F13803A7E607F1480347E607F15802E7E607F1680287E60AF
:201AA0007F1780227E607F08801C7E607F0980167E607F0A80107E607F0B800A7E607F0C9F
:201AC00080047E607F0D8F828E83E4F009E9640E6003021A3A228E408F41A903AE04ED7882
:201AE00007CEC313CE13D8F9F5448E437807C333CE33CED8F9FFFBC3ED9BF542E4FD8F82FC
:201B00008E83E0FC74892DF582E43400F583ECF00FBF00010E0DBD80E5E4FFFEE9FDC3EF46
:201B20009DEE94005025854182854083E0FDE5422F2489F582E43400F583EDF00541E54151
:201B4000700205400FBF00010E80D17B017A007989753B02AF44AE43020D4DC20B90B3E6C0
:201B6000E0FF3395E0FEEF7803C333CE33CED8F924FEF58274833EF583E0C4131313540168
:201B800030E053908012E0700E908004E004F07006908003E004F090843EE0FEA3E0FF90DB
:201BA0008003E0FCA3E0FDC39FEC9E4011908000E0FEA3E0FFED9FEC9E5003D20B22908021
:201BC00000E0FEA3E0FFC3ED9FEC9E4009E4908003F0A3F0C20B2290B3E6E0FF3395E0FE6C
:201BE000EF7803C333CE33CED8F924FEF58274833EF583E0547F6448704E908029E06407FE
:201C00007046908002E0FF908005E0C39F4033E4F0908006E0FEA3E0FF90B3E5E09F90B31F
:201C2000E4E09E400EE4F0A3F020081CD20490B3E6801290B3E5E004F0700D90B3E4E00434
:201C4000F022908005E004F02212261C122055EF600C24FE6010047010750B01800BE4F536
:201C60000B12244D8003750B021224B712255F300724C20712197D8F0A7F0112107FE50AD9
:201C8000600A121FB0908011740180059080117440F0D20C80101225D67F0112107FE50B8D
:201CA000B4010312257F7E807F147B057D08121CC00222DBE054F7F07E807F087B037D0395
:201CC0008E128F13E528C3940F504AE52B75F009A42401F582E43400F583EBF0EDF58275B3
:201CE0008300AA06A9077B01C001E52B75F009A42402F9740035F0A801FC7D01D0017E0078
:201D0000AF82120AA70528E52BC3940E4004E4F52B22052B2275280F22E4FE78087DFFE8DD
:201D2000C39D5021EE701EE6F97FAAA607E664AA60027E017F55A607E6FF645560027E01CC
:201D4000A6010880DA908000750EBF750FFFC3E582950FE583950E5021EE701EE0F97FAADD
:201D6000EFF0E064AA60027E017F55EFF0E0FF645560027E01E9F0A380D4AF0622C201120D
:201D800025E17E037F8B7D007B017A80792E120B6F7E037F8B7D007B017AB0794B120B6F8E
:201DA0007E167F047D007B017A847943120B6FE490B3E6F090B3E4F0A3F0908006F0A3F08D
:201DC000908003F0A3F0C20BC20DC208C204C20EC206908008E054DFF0C20FE490B3E7F0BF
:201DE0002290802E7421F0A3744CF0E4A3F0A37456F0A37465F0A37472F0A3742EF0A374A6
:201E00003AF090260BE493908036F090260CE493908037F0A3742CF0A37420F0A37452F007
:201E2000A3742EF0A3743AF090260DE49390803DF0A3741BF0D210908008E054F84401F038
:201E400022C0E0C0F0C083C082C0D075D000C000C001C002C003C004C005C006C007122563
:201E6000D630010C200309121B5B121BD7121729121EFC12239112252812256F122469129D
:201E8000234A122604D007D006D005D004D003D002D001D000D0D0D082D083D0F0D0E03216
:201EA00020B2FDE528604A7F0112253B7F0912253BE4F50CE52675F009A42401F582E434FA
:201EC00000F583E582250CF582E43583F583E0FF12253B050CE50CC3940940D8E4FF122582
:201EE0003B1528E526C3940E4004E4F52622052622E4FF12253BE4FF12253B22300856905E
:201F00008442E0705090B3DEE0FEA3E0FFC390B3E1E09F90B3E0E09E402DC20890B3E6E093
:201F2000FF3395E0FEEF7803C333CE33CED8F924FEF58274833EF583E0547F64486008D21D
:201F40000490B3E6E004F090B3E1E004F0700690B3E0E004F022E4FF1224CF90802AEFF0F8
:201F60007F011224CF90802BEFF07F021224CF90802CEFF07F031224CF90802DEFF07814F2
:201F80007C807D017B017A80792A7E007F04120AA790260FE493908018F090260EE49390CB
:201FA0008019F0902610E49390801AF0E4A3F0227E007F417D007B017A8379BC120B6F7E35
:201FC000007F417D007B017A8379FD120B6FE490B3E4F0A3F09084477403F0A3F0D208C2CA
:201FE0000BC20D90B3DEE4F0A37414F0E490B3E0F0A3F0908442F0D2013008051225FD8063
:20200000F8E4FF02107F90800CE0FF908011E0FE6F603790800CEEF0121D7D908011E02489
:20202000FC601F24FC601624F8600D24D06018243F701712000380121211F0800D121DE159
:2020400080081221D080031225EC7E807F087B037D03021CC0AC2DAD2EAE2FAF30120B352C
:20206000206A55115511000020927F117EAA7D117CAAAB34AA33A932A831C3120B24700DFB
:20208000F534F533F532F531750C028014750C01800F753011752F55752E11752D55E4F547
:2020A0000CAF0C228E0D8F0E8D0F751001E4F51175D3A0C2AF43D202850E82850D83E50F65
:2020C000F0E4F5D2D2AF1225D675D25075D2A07F0F1225BDE5D220E0FB9083BBE060F5051D
:2020E00011E511C3940340C8AF1022C0E0C0F0C083C082C0D075D000C000C001C002C003E6
:20210000C004C005C006C007C28E1225E1D007D006D005D004D003D002D001D000D0D0D035
:2021200082D083D0F0D0E032E4FFFE750E3F750FFEFDFC8F828E83E4932DFDE43CFC0FBF5D
:2021400000010EAB07AA06BA3FE9BBFEE6850F82850E837401936D7003E4936C60037F01B3
:20216000227F00221225AFEF602F14702A1225AF8F0C1225AFEF24FE601114601114601197
:202180002413601024F070110214CA020B9B02220002236E022431053522E4F9FAC2B500C3
:2021A0000000000000D2B5000000A2B5E433F510A802088002C333D8FC42017F057E0012D0
:2021C00022B50ABA08D77F0A7E001222B5AF0122C2AF12197D8F0C7F0112107FE50C601786
:2021E000121FB0908008E054F84401F09080117404F090800C80059080117440F0D20C2296
:20220000E4FE1225AF8F0D0EBE03F720030F908008E0131313541F30E003121CB4908008B1
:20222000E0C4540F30E006E054EF121CB7228E0E8F0F7F0F1225BDE5D220E0FB9083BBE03B
:2022400060F5C2AF43D202850F82850E83E0F510E4F5D2D2AF1225D6AF102290B3E3E06010
:2022600026908013E0701A90800CE06440601820031512254D121D7D9080117401F0D20CC7
:2022800022908013E014F0228F10E4F51174017E00A811088005C333CE33CED8F9FFEF5558
:2022A00010600512232580031223000511E511C3940840D922E4FDFCC3ED9FEC9E501BE4EC
:2022C000240524052405240524052405FB0000000000000DBD00010C80DE221225FD300949
:2022E00005C20912000E301005C2101218B9300405C2041217F3300CE2C20C12200680DB5A
:202300007F017E001222B5C2B50000000000000000000000000000C2B57F081222B5D2B5F1
:202320007F010222B57F017E001222B5C2B50000000000000000000000000000D2B57F08D8
:202340001222B5D2B57F010222B5AF29EFC41313540320E00EAF29EFC413135401652C60A7
:2023600002D202AF29EFC413135401F52C22E4FE1225AF741C2EF582E43480F583EFF00E44
:20238000BE0CED90B3E3E0908013F0122415C20322908442E0C394314013E4F090B3E2E051
:2023A000B40A05E4F002225B90B3E28003908442E004F022750E60750F0F121A38D2B47F34
:2023C000647E001224E7850F82850E83E020E0037F01227F0022E490B3E6F090B3E4F0A3F5
:2023E000F0908006F0A3F0C201C210C20BC20DC208C204C20622122604AF29EFC413540774
:2024000030E00FAF29EFC4131313540130E0037F00227F0122908022E06015902610E4936A
:20242000FF908022E06F60089080117440F0D20C22E4FE1225AF74D62EF582E434B3F583F5
:20244000EFF00EBE07ED78CF760202259FD207E4F525753011752F55752E11752D551224F1
:2024600084908009E04402F0229083B9E06014A3E0700A9083B9F09083BB04F0229083BAFD
:20248000E014F022900000AF82AE83E4FCFD7BE87AFDF9F8D3120B0E4003A380EA22121DFD
:2024A0007D908008E04410F0E054DFF07E807F087B037D03021CC0C2B17F5A12253BE4FF5E
:2024C00012253B1225AFBF0703C20222D202228F0F12258F7FCC1222887FF0122288AF0FAB
:2024E00012228812219A22E4FDFCC3ED9FEC9E500C051B1225FD0DBD00010C80ED22750EE2
:2025000001121F5690802CE0540FFFBF0303E4F50EAF0E22E4FDFCC3ED9FEC9E5009051EF8
:202520000DBD00010C80F022908012E0C394094003E4F022908012E004F0228F0DC2B13040
:20254000B2051225FD80F8850D900225F6D203908008E054EFF0E054DFF0E04408F022D2C6
:20256000A9D2AB758911758F0F758E0C0225FDE524C3941D4006E4F524D2092205242205D3
:2025800025E52524FE700778CF760112259F22C2B57F3C7E001222B5D2B57F640222B59051
:2025A000C0007401F0121D7DE4F587C2AF80FE7590FFD2B120B2FDAF901225F6229083B94B
:2025C0007401F0A3EFF0E4A3F0221223B4EF6003020EEB7FFF22C28C758CF5758A94D28C70
:2025E000227B017A60790E74FF020AE6908008E054F84402F022D2B0C2B0D2B022D2B3C2FC
:20260000B3D2B32290600FE0F529223031310101017581CF021C49D2AFD28C227587102251
:2026200000000000000000000000000000000000000000000000000000000000000000009A
:2026400000000000000000000000000000000000000000000000000000000000000000007A
:2026600000000000000000000000000000000000000000000000000000000000000000005A
:2026800000000000000000000000000000000000000000000000000000000000000000003A
:203FE00000000000000000000000000000000000000000000000000000000000000083D965
:00000001FF